:020000001729BE
:10000600153083120313FD00FD0B072800000000C6
:020016000800E0
:1000180083120313FB01FA01F9018030F800F10C97
:10002800F00C031C20287408F90775080318750FCD
:10003800FA070318FB0A0310F01F28287408FA07A8
:1000480075080318750FFB07FB0CFA0CF90CF80C74
:10005800031C13287B08F3007A08F2007908F100E2
:060068007808F00008001A
:0E006E008312031328088A0027088200080066
:10007C00831603139818442800003E288312340872
:04008C0099000800CF
:1000900083160313981690308312980083168717DF
:1000A000071383128C1E57281A08F00051280800E5
:1000B00083120313B201300884000008B100310834
:1000C000003A03196D283108B4003E20B20A320804
:0C00D000300784000008B1005F28080021
:1000DC00FF3083120313A900FF30AA00FF30AB00DE
:1000EC00FF309F01C0309F042009F0007008831678
:0C00FC009F051F179F1783121F14080098
:100108000C3083120313F2003008F0003108F100BC
:10011800720803199428F10CF00CF113FF3E8D2896
:10012800E830F4000330F5000C207008B2007108C4
:10013800B30000303005F30031080F39F4007408BB
:10014800F000F1016430F4000030F5000C20700874
:10015800B20771080318013EB307F0303005F30009
:100168003108F4000030F4057308F0007408F10059
:10017800F10CF00CF113F10CF00CF113F10CF00C84
:10018800F113F10CF00CF1130A30F4000030F50013
:100198000C2070083207F20033080318013E71077B
:1001A800F3000F303005F0003108F1000030F105A0
:0E01B8007208F00773080318013EF1070800F3
:1001C600831203139F01C0309F042009F0007008BA
:1001D60083169F051F179F1783123008F000F00D36
:1001E6007010F00D7010F00D701070089F041F1441
:1001F60003201F151F1D01290000FD281F101E08C2
:10020600F100F00183161E08F0040030F104080026
:1002160037208A110A128000840AA70A0319A80A3D
:08022600F003031D0B29080081
:10022E005A21FF308316031385006E204D3083163E
:10023E009900181548202130B00058200A30B4001B
:10024E003E200D30B4003E20B001E3207008831232
:10025E00AE007108AF007008B0007108B1008420C4
:10026E007008AC007108AD007008B4003E2010306C
:10027E00FB003930FC000D30FD00FD0B4429FC0B5A
:0E028E004429FB0B4429000000002B294D29B8
:1002B40020308400073083120313F0005330A7006A
:0802C4000130A8000B21080025
:0202A6000F3413
:0C02A80053347434613472347434003404
:02400E004A2F37
:00000001FF
